:10000000D036001085970000959700009997000062
:100010009D970000A1970000A59700009A3BFCEF78
:10002000000000000000000000000000A997000090
:10003000AD97000000000000B1970000B5970000E8
:10004000B797000035470000BB970000BF9700003E
:10005000C3970000C7970000CB970000CF97000020
:10006000D3970000D7970000DB970000DF970000D0
:10007000E3970000E7970000EB970000EF97000080
:10008000F3970000F7970000FB970000FF97000030
:10009000039800002D480000079800000B9800000E
:1000A000C19900000F9800005B4800001398000001
:1000B000179800001B9800001F980000239800006C
:0C00C000279800002B9800002F980000EB
:0402FC00FFFFFFFF02
:10400000F0B5402881B00F4614461D4600F27A8371
:10401000DFE810F04100460078034C0055005F00D7
:10402000680072007B0084008D0010011B019B0062
:10403000A1009600A600AF00B900C200CB00FD00B1
:1040400003010A015601590178036101D100D90029
:10405000E900E300EF0089017C01A601A901B2019A
:10406000B80126027A02AB02C202D102E402430086
:10407000FD0203030E03180326038C02A002320381
:104080003F0398014B0378033B03630369035E021C
:104090007402B702720300202860012001B0F0BD55
:1040A000DFF85C1A012081F87A04F4E7DFF8540A9B
:1040B0000068400800F0010020700120ECE739881A
:1040C000DFF8400A11B102214160E6E70221816078
:1040D000E3E7DFF8300A0068000900F00100207013
:1040E0000120D9E73988DFF81C0A11B1102141609D
:1040F000D3E710218160D0E7DFF8080A0068000AE2
:1041000000F0010020700120C6E73A88DFF8F409CA
:10411000002A4FF48071DAD04160BEE7DFF8E4098D
:104120000068400A00F0010020700120B4E73A88DE
:10413000DFF8D009002A4FF40071C8D04160ACE725
:104140002946204603F014FCA7E7DFF8B4190B203A
:1041500081F87A04A1E72946204603F025FC9CE774
:10416000DFF8A009006AC00900F0010020700120FA
:1041700092E73988DFF88C0911B1802141628CE720
:104180008021816289E7DFF87C09006A000A00F07B
:104190000100207001207FE73A88DFF86809002AD3
:1041A0004FF48071EDD0416277E7DFF854190320B6
:1041B00081F87A0471E7052003F0BEF800F00700EB
:1041C0002070012068E73888082880F29B8240F040
:1041D0000801052003F0CFF85FE7DFF82419052078
:1041E00081F87A0459E7DFF81819062081F87A0473
:1041F00053E7DFF814090178217041786170817804
:10420000A170C178E17000792071052044E7DFF8E2
:10421000F018002081F87A043FE7DFF8E40890F80E
:104220007D042070012037E73888DFF8D41881F842
:104230007D0432E7DFF8C868B6F880042070B6F86D
:104240008004000A6070022026E7DFF8B46838882E
:10425000A6F8860440F6EB21B6F88604884205DB12
:10426000012086F8740440F6621016E0002086F8FB
:10427000740440F6DD01B6F886048842ACBFB6F897
:10428000860440F6DC00A6F8860440F6EA20B6F87C
:1042900086148142B8BFB6F88604A6F8860496F85C
:1042A000790409283FF4F9AEB6F88604A6F880042C
:1042B0000020A6F88604B6F8800403F0DBFBECE6E9
:1042C00003F0AFFBE7E64FF61C71DFF8F409086076
:1042D00003F037FBE1E63888A0F60101B1F5806F05
:1042E0003EBF7988A1F60102B2F5806F80F00A82A4
:1042F0008142C0F00782DFF80868A6F88C0478884D
:10430000A6F88E04042086F87A04C4E63888B0F54E
:10431000807F00F3F781DFF8E86786F87E040720E6
:1043200086F87A04B7E6002020706070E11C032054
:10433000A07098A002780A7042784A7082788A70D9
:104340000620A9E60FF2C436304603F0F7FBC7B2E9
:1043500027703A463146601C03F00CFC781C9BE643
:104360000120207098E63888DFF858190870DFF8C7
:104370009007B0F88004A0E7DFF8480900782070C3
:10438000012089E6DFF840590020C5E90000C5E9B1
:10439000020022780023C5E90023607842EA002267
:1043A000C5E90023A07842EA0042C5E90023E0788D
:1043B00042EA0062C5E9002327791646C5E900678D
:1043C00060791946282203F011FC06430F43C5E922
:1043D0000067A0790021302203F008FC06430F4358
:1043E000C5E90067E0790021382203F0FFFB304384
:1043F0003943C5E90001227A0023C5E90223607A26
:1044000042EA0022C5E90223A07A42EA0042C5E955
:104410000223E07A42EA0062C5E90223277B1646BE
:10442000C5E90267607B1946282203F0DFFB0643DB
:104430000F43C5E90267A07B0021302203F0D6FBC1
:1044400006430F43C5E90267E07B0021382203F0F1
:10445000CDFB30433943C5E9020103F0D9FB1CE62B
:10446000DFF81C0ADFF89866002101600168090284
:10447000016001682278114301600168090201604E
:1044800001686278114301600168090201600168F6
:10449000A278114301600168090201600168E278B5
:1044A00011430160022086F87404012086F8770425
:1044B0004FF08050DFF84C1648662079617941EA68
:1044C0000020DFF8341A0880082086F87A04E4E532
:1044D000DFF82C66052086F874040A210E2086F881
:1044E0007A04DFF8180A03F019FDDFF8141A002027
:1044F00008700120DFF80C1A0870CEE5DFF800160E
:10450000012081F87504C8E52078617840EA01202F
:10451000A17840EA0140E17840EA0160DFF8E8195B
:104520000860DFF8DC05B0F88004C6E6DFF8CC09E7
:104530005FF0050114F8012B00F8012B491E14F857
:10454000012B00F8012BF5D1DFF8B8190120087014
:104550000A20A1E50A21DFF8A40903F0DFFCDFF857
:10456000A419002008700A2096E5DFF89C0900686D
:104570002070010A6170010C000EE070A17004202F
:104580008AE52078617841EA0020DFF86C1908801C
:1045900083E500BF302E31000020DFF8646528601D
:1045A00086F87504032086F87404092086F87A04D6
:1045B00003F012FD7FE6DFF84865D6F82804207086
:1045C000D6F82804000A6070D6F82804000CA07001
:1045D000D6F82804000EE07004205DE520786178AC
:1045E000DFF81C6540EA0120A17840EA0140E1784B
:1045F00040EA0160C6F8280490FAA0F0A6F82E045C
:10460000000CA6F82C040120C6F8640445E513202C
:1046100020703720607002203EE5DFF8E404D0F817
:104620003804401E8041C043C00F2070012033E594
:104630003988481E8041C043DFF8C414C00FC1F858
:1046400038042AE503F0E6FC010005D040222046AC
:1046500003F090FA40201FE50020207001201BE5A8
:104660000020DFF89C64286086F874040A2086F82D
:104670007A0403F0B1FC1EE63888C0B202F05CFE9A
:10468000010A21706070022006E538887988C0B27E
:10469000A0E5DFF86C640622214606F26C4003F0C8
:1046A00069FA0C2086F87A04F7E4DFF8546460793C
:1046B00086F85C04207986F85D04E07886F85E046C
:1046C000A07886F85F04607886F86004207886F821
:1046D00061040120C6F86404DFE43888DFF82014A0
:1046E00081F87B04D9E4DFF818640D2086F87A0499
:1046F000388886F87C04D0E40421204603F00EFCC0
:104700000420C9E4002001B0F0BD000075626572AC
:10471000746F6F746820302E312028494152405701
:10472000696E3130783634292031353A32333A35B2
:10473000370000004FF040200168C90775D5DFF849
:1047400040170A6800230B60521CDFF8BC170B6887
:10475000D2180A600A68DFF8A8230B68D2F840C4B0
:10476000A3EB0C0392F874C4BCF1000F1CBF92F8C9
:1047700074C4BCF1010F03F0030303D10B6813F001
:104780007F0F3CE092F874C4BCF1020F03D10B68B8
:10479000DB0738D434E092F874C4BCF1030F21D1A4
:1047A00092F83CC4BCF1030F08BF002B2BD1B2F828
:1047B00044345B1EA2F84434B2F8443463B9012394
:1047C00082F87534B2F848345B1CA2F84834B2F869
:1047D0004634A2F8443416E0DFF834394FF48072DE
:1047E0001A6010E092F87434052B0CD1DFF82439EC
:1047F0001B68B2F884C46344D1F800C0634502D199
:10480000012382F8753440F6354CDFF8EC26138826
:10481000634502DB0B689B1C0B60118801F6344179
:10482000816100211180012101607047DFF8E818E3
:10483000042008604FF08050DFF8E0180860012085
:10484000DFF8DC180870DFF8DC0890F8741402292F
:1048500004BF002180F87714704730B5DFF8A0421C
:1048600081B094F8790401281CBF94F879040428D5
:104870000AD094F8790409281FBF94F879040A280B
:1048800094F879040C2837D1DFF89C582868C007C1
:1048900032D56868C00725D50120A86094F8740453
:1048A000022804D1DFF884184FF08050086003F02C
:1048B00043FCC4F89004DFF87828DFF84C06006861
:1048C000000D84F87604B4F88004A4F88A04DFF8B4
:1048D00064080168136803601160DFF85C08016810
:1048E000491C0160E868C00706D501202861DFF88F
:1048F0004C080168491C016001B030BD00B581B0B1
:10490000642002F0B3FE00BF02F093FE4007FBD428
:10491000DFF8FC078021016210224FF480710162F0
:10492000026001600221016003F0F8FB03F018FD52
:1049300003F0E8F803F066FDDFF8C401002180F819
:10494000741480F87514002240F68911A0F88014C0
:104950000021A0F882149E21A0F884140021A0F860
:104960008614A0F8881480F87614C0F89014A0F883
:104970008A1480F8771480F8781480F8791480F815
:104980007A1480F87B1480F87C1480F87D144FF43E
:104990001661A0F88C1440F6B311A0F88E146FF0D5
:1049A0001D0180F87E1401B0DFF81C03C0E900226D
:1049B000C0E9022200BD000030B5514C81B094F82E
:1049C0007D0400283ED1292547F6FF710D2002F015
:1049D000D2FC42F62231122002F0CDFC41F24B31E2
:1049E000142002F0C8FC40F20111202002F0C3FCA8
:1049F000B4F88004411E89B2022002F0BCFC2946B2
:104A0000032002F0B8FCB4F8800403F033F803F09C
:104A10008FFB00BF02F00DFE4006FBD5612002F0C7
:104A200025FE00BF02F005FE4007FBD5622002F024
:104A30001DFEDFF80C07802101604FF480710160DA
:104A400001B030BD94F87D040128F9D14025BBE7C1
:104A5000F0B52B4D81B0044695F87D04002847D170
:104A6000292640F2614747F6FF710D2002F083FCD2
:104A700042F62231122002F07EFC41F24B2114203A
:104A800002F079FC3946202002F075FCA1B22C20FE
:104A900002F071FC210C2D2002F06DFCB5F88004B1
:104AA000411E89B2022002F066FC3146032002F06A
:104AB00062FCB5F8800402F0DDFF03F039FB00BFB3
:104AC00002F0B7FD4006FBD5612002F0CFFD00BF2C
:104AD00002F0AFFD4007FBD5622002F0C7FDDFF812
:104AE0006006802101604FF48071016001B0F0BD6B
:104AF00095F87D040128F9D1402640F26157B2E7CC
:104B00000000001034C00920B02E0010F0B5DFF80E
:104B1000144681B0002084F87504DFF8F825DFF82A
:104B2000E8030168116094F8741451B9022002F08E
:104B300003FCB4F88014491E884240F0998001B00B
:104B4000F0BD94F8741401293AD1DFF8701CDFF835
:104B5000AC234FF48070086040F6B113DFF8A40373
:104B6000DFF89C13007809785FF00105B4F88064E1
:104B70002036A4F88064B4F880649E4204DBB4F864
:104B800080644F3EA4F88064B4F88064B4F8807404
:104B9000A7F66217A6F662164FEAA70CF61007EB07
:104BA0005C7C4FEAEC0CB65CA7EBCC0705FA07F788
:104BB0003E40002918BF00285AD0002ED6D057E01A
:104BC00094F8741405292BD1B4F880042030A4F88B
:104BD0008004B4F88004B0F51B6F04DDB4F88004E1
:104BE0004F38A4F88004B4F88004B4F88014C34AA1
:104BF000A0F66210A1F66211C0108B10805C01EB70
:104C00005373DB100122A1EBC30102FA01F101EAA7
:104C10000006BB4800784F282AD0002ED4D127E0C8
:104C200094F87414022908D1DFF8902B4FF48071A6
:104C30001160006803F008F918E094F87404032880
:104C400009D1DFF8781B4FF48070086004F58560A7
:104C500003F044FC0AE094F87404042808D1DFF857
:104C60005C1B4FF480700860B4F88204A4F88004E0
:104C7000642002F0FBFC00BF02F0DBFC4007FBD429
:104C8000B4F88004411E89B2022002F074FB94F84B
:104C9000740418B1B4F8800402F0ECFE612002F054
:104CA000E5FC00BF02F0C5FC4007FBD5012084F8FD
:104CB000770401B0BDE8F040622002F0D7BC0000EC
:104CC00021BB0543C52E0010E82C00102DE9F04F44
:104CD000DFF8E84A81B01020606003F07DF902F04F
:104CE000A6FA03F04FFA03F023FBFFF765FE02F08C
:104CF000EBFEDFF81482DFF85CACDFF82474DFF839
:104D00003854DFF8209431E00020307099F87604B0
:104D1000F070D9F890047060B9F88A046238B07005
:104D2000DFF8340C00787072DFF8300C00783072E5
:104D3000B9F88A0403F0B3FBB0723222DFF8200C1A
:104D40000078F072594606F10E0002F013FF99F850
:104D500078047070002089F87804D8F8000003F017
:104D60006BF90020DFF8D4132860086099F87A0402
:104D700001281CBF99F87A0408287AD110206060B5
:104D80006FF07F0603F03EFB286820BB062002F090
:104D9000D3FA3978000A69B176B216F1800F09D1D9
:104DA0009AF9001001F1360240B28242A8BF01F127
:104DB0003600064640B203F037FBD8F8000003F097
:104DC0003BF999F87504002806BF4FF480706060C5
:104DD000FFF79CFED8E710202060D848006828B173
:104DE00099F8780440F0020089F8780428680228CD
:104DF00005D399F8780440F0010089F8780499F80F
:104E0000770440B199F8780440F0200089F87804DC
:104E1000002089F87704B9F8800403F01DFB387886
:104E2000DFF8441B0978084307D099F8780440F06C
:104E3000080089F8780400203870DFF8200B9AF910
:104E4000001090F900003631884205DB99F87804AB
:104E500040F0100089F87804B548D0F800B003F0AD
:104E6000C4F806007FF450AF99F8780440F00400CD
:104E700071E703F075FA01B0BDE8F04F02F033BE00
:104E8000AC2E001010B5A74CDFF8E00AC4F82804D7
:104E900090FAA0F0A4F82E04000CA4F82C04DFF87B
:104EA000D00AC4F83004DFF8180CC4F83404002029
:104EB000C4F83804C4F8680484F83C0484F83D0459
:104EC00084F83E04C4F84004A4F84404A4F846045A
:104ED000A4F8480484F84A04A4F84C04C4F8500424
:104EE000A4F85404A4F8560484F85804A4F85A0406
:104EF00084F8750410BD0000A02E0010A82D00102D
:104F0000052D0010042D0010A42E00102DE9F14FE6
:104F1000DFF81092864DDFF83CAA814FDFF81C8243
:104F2000854C012089F87D0400269DF8000089F851
:104F30007904FFF7A7FFDFF8CC1C4FF08070086002
:104F400010207349086003F047F802F070F903F08D
:104F500019F903F0EDF9FFF72FFD02F0B5FD03E0BD
:104F600000202060C8F8000099F87A049DF800102D
:104F7000884240F0BD80B9F88604D8B1642002F0C0
:104F800075FB00BF02F055FB4007FBD4B9F8800465
:104F9000411E89B2022002F0EEF9612002F066FBA8
:104FA00002F047FB4007FBD5622002F05FFB0020C8
:104FB000A9F8860499F8750410B1FFF7A7FD03E07E
:104FC00053494FF48070086010205149086003F085
:104FD00019FA6FF07F0B17E0062002F0ADF939786F
:104FE000000A71B14FFA8BFB1BF1800F09D19AF9BE
:104FF000001001F1360240B28242A8BF01F1360032
:10500000834640B203F010FA2068002804BFD8F8A5
:1050100000000028E0D0D8F8000028B199F8780402
:1050200040F0020089F878042068002898D02068B1
:10503000022805D399F8780440F0010089F8780433
:10504000B9F8800403F008FA3878DFF81C190978F9
:10505000084308D099F8780440F0080089F87804EB
:10506000022600203870DFF8F4089AF9001090F951
:1050700000003631884207DB99F8780440F01000D0
:1050800089F87804022603E0F6B2002E3FF468AFF8
:105090004FF4C87209F5C871484602F07BFD761ED0
:1050A000002009F5C87204212B68C35CDB0902F8F3
:1050B000013B2B68C35CD5F800C05B0000F80C30E6
:1050C0002B68C35CDB0902F8013B2B68C35CD5F895
:1050D00000C05B0000F80C30491EE5D1401C3228AE
:1050E000E1DBD9F898144846884700287FF438AFA8
:1050F000DFF8101B4FF08070C1F88000FFF7FEFB57
:1051000003F02EF901B0BDE8F04F02F0ECBC000056
:105110003CC00920A82E0010AC8002409CC0092091
:10512000C72E0010000000100040005098C0092059
:10513000402C00103C2C0010442C0010482C001077
:1051400058C009202DE9F04FDFF8B4BB9DB082466E
:10515000BBF88004DFF86466DFF8A87BDFF8A88B73
:10516000DFF800986238C0B203F0DBF900EB4001D1
:10517000DFF8980B00EB0110019001208BF87D0403
:105180008BF879A48BF83C044FF08070DFF8741A28
:1051900008601020706002F01FFF02F048F803F072
:1051A00059F803F0C5F8DBF8280490FAA0F0FFF7EF
:1051B0004FFCDFF8080C02900DE000BF02F039FA56
:1051C0004007FBD5622002F051FADFF8F41B002003
:1051D0000860C9F800009BF87A04504540F08881C7
:1051E000BBF88604F0B1642002F040FA02F021FA24
:1051F0004007FBD4BBF88004411E89B2022002F0B4
:10520000BAF8612002F032FA02F013FA4007FBD537
:10521000622002F02BFABBF88604ABF88804002069
:10522000ABF886041020706003F0ECF8DFF8900B08
:10523000006850B9D9F8000038B99BF87504002807
:1052400004BF9BF87A045045F0D0062002F074F8B1
:10525000DFF80817000A08700878DFF8FC160870F5
:105260009BF87A04504540F04381D9F8000028B1FA
:105270009BF8780440F002008BF878049BF87504E2
:10528000002840F0BF80DFF8380B00680028A2D06B
:10529000DBF82804DFF8241B0390322210A802F068
:1052A00069FC9DF841109DF84000090441EA006046
:1052B0009DF8421040EA01209DF84310084390FAFF
:1052C000A0F001990968484004909DF8110000F091
:1052D0003F00801C2828009080F09480801D80086A
:1052E0000B280BD2D8F80010029A02EB80029142F0
:1052F0000CD2D9F800100029F4D007E0D8F80C003F
:10530000C00703D5D9F800000028F7D0F869400895
:105310004000F8610424612002F0A8F93222DFF88D
:105320009C1A10A802F026FC11AD697828780904AF
:1053300041EA0060A97840EA0120E978084390FA40
:10534000A0F06110019A04EB9171891052F82120AC
:10535000504003AA02EB8101241D2D1D2C2C486016
:10536000E3DBDBF8380488B1009ADBF8340404A9E5
:1053700003F030F9009A03A951184B798A79097919
:105380001B0243EA0242114388423BD110203060A5
:1053900003A8DBF89C14884702F027FE040004D120
:1053A0009BF8780440F0040026E0012020709BF870
:1053B0007604E070DBF890046060BBF88A04623821
:1053C000A070DFF8940500786072DFF8900500782F
:1053D0002072BBF88A0403F062F8A0723222DFF870
:1053E00080050078E07203A904F10E0002F0C2FB10
:1053F0009BF87804607000208BF8780402F09CFE23
:10540000CBF86804612002F031F9F86940084000E7
:10541000F861786840070FD53868786840070BD581
:1054200038687868400707D538687868400703D53A
:10543000386878684007EFD402F07EFEDBF8681425
:1054400088423CBFDFF87C2910189BF83C24032AD3
:1054500018BF022A04D1401ADFF86C19884203D21F
:10546000DBF8940401286CD1DFF80005CBF82804A0
:1054700090FAA0F0ABF82E04000CABF82C04DFF887
:10548000F004CBF83004DFF83806CBF83404002001
:10549000CBF83804CBF868048BF83C048BF83D0457
:1054A0008BF83E04CBF84004ABF84404ABF8460458
:1054B000ABF848048BF84A04ABF84C04CBF8500422
:1054C000ABF85404ABF856048BF85804ABF85A0404
:1054D0008BF87504CBF894044FF4807070609BF8DF
:1054E0007B04012813D100208BF87B048BF87A040D
:1054F0004FF08070DFF80C17C1F88000FFF7FEF95D
:1055000002F02EFF02F0EFFA1DB0BDE8F08FBAF105
:105510000A0FEDD001208BF83C04642002F0A6F8BD
:1055200002F087F84007FBD4BBF88804002814BFBA
:10553000BBF8880440F66210ABF880040120CBF879
:10554000A0042C20BBF82E1401F015FFBBF82C147E
:105550002D2001F010FF9BF8750408B1FFF7D6FA73
:10556000DBF89404012838DB47F6FF710D2001F0C9
:1055700002FF42F62231122001F0FDFE42F24B31D1
:10558000142001F0F8FE40F60141202001F0F3FE66
:105590004021032001F0EFFE02F04BF84006FBD55E
:1055A000612002F063F800BF02F043F84007FBD52A
:1055B0004FF480703060802030620E2001F0BCFE1D
:1055C00000F01F000F28F8D1632002F04FF8DBF83D
:1055D0009404401ECBF89404F7E502F03BFE02F081
:1055E000A7FEDBF8A00400283FF4E8ADDBF82804B0
:1055F00090FAA0F0FFF72CFA0020CBF8A004E4E525
:105600002DE9F041DFF8F846B4F880046238C0B202
:1056100002F087FFDFF8DC1A405C2178CB07611CC1
:105620000A220D78ED0745EA53034D78ED0745EA68
:1056300053038D78C91CED07521E45EA5303F0D180
:10564000E57FD4F82814ED071F2245EA53038B4267
:105650000AD0202204F1200515F8016BF60746EA6E
:1056600053038B4240F0868000211F3ADFF8885AAE
:10567000DFF8883A002600274FEA020CBCF5487F85
:105680001ADA1CF804E004290CDB10F8038088EA1D
:105690000E0E401C4FF07F08B0FBF8F8C8EBC8189E
:1056A000A0EB08000EFA07FE7F1C4EEA0606082F44
:1056B000F6B20CF1010CE1DB2F68CE55491C083223
:1056C0002E29D7DBD4F83804D0B12868407900F00F
:1056D0003F00861C2868011DD4F83404324602F0CD
:1056E00079FF2968711889792A68B21852792B686C
:1056F000120242EA0141F21812791143884259D14B
:105700002E6802F072FC070004D194F8780440F08F
:10571000040023E00120387094F87604F870D4F87F
:1057200090047860B4F88A046238B8708A480078C7
:1057300078728A4800783872B4F88A0402F0AFFEB2
:10574000B872322286480078F872314607F10E00AE
:1057500002F010FA94F878047870002084F8780445
:105760001020164908602868D4F89C148847012046
:10577000BDE8F08115F8016BF607521C46EA5303A9
:105780008B423FF471AF15F8016BF607521C46EAE5
:1057900053038B423FF468AF15F8016BF607521CB8
:1057A00046EA53038B423FF45FAF521CB2F5D87FF9
:1057B000FFF652AF0120BDE8F081000038C009209B
:1057C00030B5DFF83C5595F83C340446A01D2179EE
:1057D000022B81B01BD1032085F83C04DFF820099F
:1057E0000068C5F84004B5F84604401EA5F8440416
:1057F0000020A5F84804C5F8500495F87B0400285B
:1058000000F0A6802820C5F8940401B030BD032B19
:1058100049D1D5F8502401F00301E2B1B5F848248C
:10582000B5F854349A4216D1DFF8D4281268C5F876
:105830004024B5F85624A5F84624521EA5F8442461
:1058400095F8582485F84A24B5F85A24A5F84C242C
:105850000022C5F85024032904BF0078002877D11E
:10586000E07985F85804617A207A00EB0120A5F8E8
:105870005A04E17AA07A00EB0120A5F85604617C75
:10588000207C00EB0120A5F85404B5F85404B5F8C9
:105890004814401A47F6FF71884259DA0120C5F8CA
:1058A000500401B030BD012B04BF01F00F000528EA
:1058B0004ED1D5F8640478B10622A11D05F25C40F2
:1058C00002F0C8FE40B1062204F10C0105F25C4072
:1058D00002F0C0FE00283BD1022085F83C040020E5
:1058E000C5F83804E17CA07C40EA0120217D40EA33
:1058F0000140617D40EA0160C5F8280490FAA0F0FB
:10590000A5F82E04000CA5F82C04E17D207E0902E8
:1059100041EA0040A17D0843C5F83004D5F83004C1
:1059200090FAA0F0C5F83404607E85F84A04A07EA1
:10593000A5F84C04207FA5F8460494F8270000F051
:105940001F0085F83E0485F83D04012085F87504A4
:1059500001B030BDC62E0010CD2E0010CC2E001090
:10596000CE2E0010482C0010C42E0010D6BE898EFA
:105970005555550070B5E24C8EB0B4F8800440F631
:105980006415A84240F6661606D102F0D5FBC4F8AD
:10599000A404A4F882648EE0B4F88004B04240F01D
:1059A000888002F0C9FBD4F8A41488423CBFDFF819
:1059B00014241018B4F8462443F2D4035343401A75
:1059C00003EBD37100EB6100B0FBF3F0252870D23C
:1059D0000FF2F001405C84F83E045108A4F844142E
:1059E000401C0021A4F84814C4F8401484F875142D
:1059F0002522252190FBF1F102FB110084F83D04E2
:105A00000021032084F83C0400220020C4F838045C
:105A10000B46032084F874040D46DFF84007C4F8F1
:105A20009C0400A82EC02EC02EC0016003208DF85B
:105A300000000DF1010104F23E4002780A7002F00C
:105A4000D4FA050004D194F8780440F0040026E06C
:105A50000520287094F87604E870D4F89004686003
:105A6000B4F88A046238A870DFF898060078687283
:105A7000DFF8940600782872B4F88A0402F00FFD6B
:105A8000A8723222DFF8D8060078E87200A905F182
:105A90000E0002F06FF894F878046870002084F823
:105AA000780494F87B0448B12820C4F894040EB01C
:105AB00070BDA4F88254012084F875040EB070BD46
:105AC000AAAAAA00000113191C0F1F100E211A1BED
:105AD00022140805071823020D1E201D11030A0BAE
:105AE0000417150616090C122400000070B58EB0BC
:105AF00002F022FB824C0546D4F8A80485423CBF44
:105B0000DFF860164D19281A46F2A811884277D39B
:105B1000D4F82014884288BF0846C4F82004DFF86F
:105B200048160818DFF84416B0FBF1F0B4F8461434
:105B300080B281425DD1D4F82404401C0528C4F809
:105B400024045BD1DFF82806C4F89C04002140F649
:105B50006410A4F882040022042084F874040B4624
:105B6000012084F875040E4600A84EC04EC04EC0F9
:105B7000016002208DF800000DF1010104F24640A1
:105B800002780A7042784A7002F02FFA060006D1B5
:105B900094F8780440F0040084F878042EE005209E
:105BA000307094F87604F070D4F890047060B4F813
:105BB0008A046238B070DFF84C0500787072DFF844
:105BC000480500783072B4F88A0402F068FCB072BC
:105BD0003222DFF88C050078F07200A906F10E0081
:105BE00001F0C8FF94F878047070002084F87804FD
:105BF00004E0A4F846040020C4F82404C4F8A8541F
:105C00000EB070BD00E100E030B53D4CD4F8381462
:105C10008DB0002901BF01790129417900296DD199
:105C2000C579037A011D2D02807945EA03430222DA
:105C3000184302F0A3FC0021C4F83004C4F8341463
:105C400020FA01F3D4F8342403F00103C1F117055D
:105C5000AB40491C1A431829C4F83424F0DB012056
:105C6000C4F838040021DFF80C05C4F89C040022B5
:105C700000A80B460D462EC02EC02EC0016001208C
:105C80008DF800000DF1010104F5866002780A70BC
:105C900042784A7082788A7002F0A7F9050004D130
:105CA00094F8780440F0040026E00520287094F869
:105CB0007604E870D4F890046860B4F88A04623816
:105CC000A870DFF8400400786872DFF83C040078C0
:105CD0002872B4F88A0402F0E2FBA8723222DFF8DC
:105CE00080040078E87200A905F10E0001F042FF7F
:105CF00094F878046870002084F878040DB030BD02
:105D000000000010080003400441005084610000BE
:105D100070B4DFF86414002201F5487353F8084B9F
:105D2000844208D101EBC200D0F82413491CC0F80A
:105D3000241370BC704753F8084B521C84421EBF9A
:105D4000521C53F8084B84421EBF521C53F8084B98
:105D50008442E7D0521C202AE0DB002201F549737F
:105D600004E01E68A64201DB002C01D51C68154624
:105D70009E68521CA64201DB002C01D51546344614
:105D80001E69521CA64201DB002C01D51546344683
:105D90009E69521CA64201DB002C01D515463446F3
:105DA000521C2033202ADCDB01EBC501C1F82003A3
:105DB0000120C1F8240370BC704700004C2C001077
:105DC000442C0010000050C381F0FA022DE9F04F7E
:105DD0000FF23831A3B0B1E8DC51054612A8A0E8B3
:105DE000DC51B1E8DC51A0E8DC510DF14808042792
:105DF000DFF80863DFF88043B4F880046238C0B28B
:105E000002F08FFBBB49415C5FF0080098F800206E
:105E10008B5D5A4088F80020491C7F22B1FBF2F2CA
:105E2000C2EBC212891A98F801208B5D5A4088F89B
:105E30000120491C7F22B1FBF2F2C2EBC212891A87
:105E4000401E08F10208E1D17F1ED5D1DFF8A892EB
:105E50005FF0200705F120080FF2F021B1E80C50A7
:105E600001A801A9A0E80C5012AA04230020C446EE
:105E70004FEA020E1CF801AB1EF801BBDA4502D056
:105E80000020086014E01CF801AB1EF801BBDA45E5
:105E900002BF1CF801AB1EF801BBDA4502BF1CF8BB
:105EA00001AB1EF801BBDA45EAD1001D1028E1DB89
:105EB0001032091D5B1ED9D10198002804BF029839
:105EC000002806D10398002804BF0498002800F099
:105ED0008880B4F880046238C0B202F022FB8549A1
:105EE000415C0022A7F120034FF0000C00209E46E9
:105EF000BEF5487F1BDA1EF805A0042A0CDB11F85A
:105F000006B08BEA0A0A491C4FF07F0BB1FBFBFB82
:105F1000CBEBCB1BA1EB0B010AFA00FA401C4AEABF
:105F20000C0C08285FFA8CFC0EF1010EE0DBD9F8AE
:105F3000000002F800C0521C08330A2AD4DBD9F84A
:105F40000010042200A801F015FE9DF802109DF833
:105F50000300090441EA00609DF8011040EA0120B5
:105F60009DF800100843FFF7D3FED9F800A002F017
:105F70003CF85FEA000B04D194F8780440F0040088
:105F80002DE001208BF8000094F876048BF80300D4
:105F9000D4F89004CBF80400B4F88A0462388BF883
:105FA0000200584800788BF80900574800788BF8B1
:105FB0000800B4F88A0402F072FA8BF80A00322260
:105FC000DFF89C0100788BF80B0051460BF10E00B6
:105FD00001F0D0FD94F878048BF80100002084F8DB
:105FE00078047F1CB7F53C7F08F10108FFF634AF59
:105FF0005FF0000004F5497151F8082B042A62DBB8
:1060000004EBC000D0F82003C4F8280490FAA0F0F4
:10601000A4F82E040021000CA4F82C040022DFF8C0
:106020005C01C4F898040B46DFF85401C4F89C04E2
:106030000D460020C4F8380405A82EC02EC02EC07E
:1060400001608DF81410042204F585610DF115002E
:1060500001F090FD01F0C9FF050009D194F8780422
:1060600040F0040084F8780423B00020BDE8F08FED
:106070000520287094F87604E870D4F890046860DD
:10608000B4F88A046238A8701E48007868721E4806
:1060900000782872B4F88A0402F001FAA872322259
:1060A000DFF8BC000078E87205A905F10E0001F0E8
:1060B00061FD94F878046870002084F8780423B0B7
:1060C0000020BDE8F08F51F8082B401C042ABEBF09
:1060D000401C51F8082B042ABEBF401C51F8082B65
:1060E000042A8DDA401C202886DB012023B0BDE87D
:1060F000F08F0000D4700000402C0010547000009D
:10610000A42E0010CD2E0010CC2E00100100000097
:10611000000000000000000000000000010000017D
:10612000000000000000000000000000010001006D
:10613000000000000000000000000000010001015C
:10614000000000000000000000000000010000004E
:10615000010000000100000001000000C157000024
:10616000CE2E0010C0ABC6C252870300A40E07009B
:1061700075590000ED5A00000000001001560000A3
:10618000095C000040B2BCC31F374A5F85F69C9A89
:10619000C1D6C5442059DEE18F1BA5AF427B4ECD51
:1061A00060EB6222902CEFF0C78DD257A13DA7661D
:1061B000B07531118940B2BCC31F374A5F85F69C68
:1061C0009AC1D6C5442059DEE18F1BA5AF427B4E54
:1061D000CD60EB6222902CEFF0C78DD257A13DA786
:1061E00066B07531D257A13DA766B075311148969A
:1061F00077F8E346E9ABD09E5333D8BA980824CB5E
:106200003BFC71A3F45568CFA9196C5D4C0492E571
:106210001DFEB8511BA5AF427B4ECD60EB622290B4
:106220002CEFF0C78DD257A13DA766B0753111484C
:106230009677F8E346E9ABD09E5333D8BA98082452
:10624000CB3BFC716479873F6E94BE0AED39358390
:10625000AD8B8940B2BCC31F374A5F85F69C9AC19B
:10626000D6C5442059DEE18F1BA5AF427B4ECD60E1
:10627000EB622290AD8B8940B2BCC31F374A5F8569
:10628000F69C9AC1D6C5442059DEE18F1BA5AF42CA
:106290007B4ECD60EB6222902CEFF0C78DD257A1E0
:1062A0003DA766B0F69C9AC1D6C5442059DEE18F61
:1062B0001BA5AF427B4ECD60EB6222902CEFF0C766
:1062C0008DD257A13DA766B0753111489677F8E396
:1062D00046E9ABD03F6E94BE0AED393583AD8B896C
:1062E00040B2BCC31F374A5F85F69C9AC1D6C544ED
:1062F0002059DEE18F1BA5AF427B4ECD60EB6222C1
:10630000902CEFF00824CB3BFC71A3F45568CFA987
:10631000196C5D4C0492E51DFEB851FA2AB4E7D41D
:106320000CB62E2602C9F20E7FDC287D15DA736AC0
:10633000065B1713C1D6C5442059DEE18F1BA5AFFC
:10634000427B4ECD60EB6222902CEFF0C78DD2578E
:10635000A13DA766B0753111489677F8E346E9ABE1
:10636000D09E53339AC1D6C5442059DEE18F1BA578
:10637000AF427B4ECD60EB6222902CEFF0C78DD206
:1063800057A13DA766B0753111489677F8E346E905
:10639000ABD09E535333D8BA980824CB3BFC71A39F
:1063A000F45568CFA9196C5D4C0492E51DFEB851F7
:1063B000FA2AB4E7D40CB62E2602C9F20E7FDC28E6
:1063C0007D15DA732CEFF0C78DD257A13DA766B0CB
:1063D000753111489677F8E346E9ABD09E5333D830
:1063E000BA980824CB3BFC71A3F45568CFA9196C6B
:1063F0005D4C0492E51DFEB851FA2AB4E7D40CB600
:106400002E2602C9F20E7FDC287D15DA736A065B40
:106410001713816479873F6E94BE0AED393583ADD9
:106420008B8940B2BE0AED393583AD8B8940B2BC51
:10643000C31F374A5F85F69C9AC1D6C5442059DEF2
:10644000E18F1BA5AF427B4ECD60EB6222902CEF1B
:10645000F0C78DD277F8E346E9ABD09E5333D8BA74
:10646000980824CB3BFC71A3F45568CFA9196C5D47
:106470004C0492E51DFEB851FA2AB4E7D40CB62EAE
:106480002602C9F2D09E5333D8BA980824CB3BFCDD
:1064900071A3F45568CFA9196C5D4C0492E51DFEFB
:1064A000B851FA2AB4E7D40CB62E2602C9F20E7FF0
:1064B000DC287D15196C5D4C0492E51DFEB851FA7F
:1064C0002AB4E7D40CB62E2602C9F20E7FDC287D52
:1064D00015DA736A065B1713816479873F6E94BE81
:1064E0000AED3935427B4ECD60EB6222902CEFF005
:1064F000C78DD257A13DA766B0753111489677F880
:10650000E346E9ABD09E5333D8BA980824CB3BFC82
:1065100071A3F4558B8940B2BCC31F374A5F85F61F
:106520009C9AC1D6C5442059DEE18F1BA5AF427BA2
:106530004ECD60EB6222902CEFF0C78DD257A13D7B
:10654000A766B075F45568CFA9196C5D4C0492E547
:106550001DFEB851FA2AB4E7D40CB62E2602C9F2B1
:106560000E7FDC287D15DA736A065B171381647968
:10657000873F6E943DA766B0753111489677F8E372
:1065800046E9ABD09E5333D8BA980824CB3BFC7174
:10659000A3F45568CFA9196C5D4C0492E51DFEB8B3
:1065A00051FA2AB466B0753111489677F8E346E996
:1065B000ABD09E5333D8BA980824CB3BFC71A3F4DC
:1065C0005568CFA9196C5D4C0492E51DFEB851FACF
:1065D0002AB4E7D4AF427B4ECD60EB6222902CEF21
:1065E000F0C78DD257A13DA766B075311148967797
:1065F000F8E346E9ABD09E5333D8BA980824CB3B96
:10660000FC71A3F4980824CB3BFC71A3F45568CF2C
:10661000A9196C5D4C0492E51DFEB851FA2AB4E745
:10662000D40CB62E2602C9F20E7FDC287D15DA7353
:106630006A065B1751FA2AB4E7D40CB62E2602C9B3
:10664000F20E7FDC287D15DA736A065B171381640E
:1066500079873F6E94BE0AED393583AD8B8940B2A0
:10666000BCC31F370AED393583AD8B8940B2BCC33B
:106670001F374A5F85F69C9AC1D6C5442059DEE192
:106680008F1BA5AF427B4ECD60EB6222902CEFF0CA
:10669000C78DD257C31F374A5F85F69C9AC1D6C5AE
:1066A000442059DEE18F1BA5AF427B4ECD60EB62EB
:1066B00022902CEFF0C78DD257A13DA766B075315F
:1066C00011489677BCC31F374A5F85F69C9AC1D69E
:1066D000C5442059DEE18F1BA5AF427B4ECD60EB58
:1066E0006222902CEFF0C78DD257A13DA766B075FE
:1066F00031114896753111489677F8E346E9ABD0E9
:106700009E5333D8BA980824CB3BFC71A3F4556848
:10671000CFA9196C5D4C0492E51DFEB851FA2AB45C
:10672000E7D40CB62E2602C9F20E7FDC287D15DADE
:10673000736A065B1713816479873F6E94BE0AED16
:10674000393583AD8B8940B2BCC31F374A5F85F6AC
:106750009C9AC1D6E7D40CB62E2602C9F20E7FDC75
:10676000287D15DA736A065B1713816479873F6E9B
:1067700094BE0AED393583AD8B8940B2BCC31F3757
:106780004A5F85F660EB6222902CEFF0C78DD257FE
:10679000A13DA766B0753111489677F8E346E9AB9D
:1067A000D09E5333D8BA980824CB3BFC71A3F45540
:1067B00068CFA919A9196C5D4C0492E51DFEB8516A
:1067C000FA2AB4E7D40CB62E2602C9F20E7FDC28D2
:1067D0007D15DA736A065B1713816479873F6E94BF
:1067E000BE0AED39F20E7FDC287D15DA736A065B8E
:1067F0001713816479873F6E94BE0AED393583ADF6
:106800008B8940B2BCC31F374A5F85F69C9AC1D6BC
:10681000C54420593BFC71A3F45568CFA9196C5DA0
:106820004C0492E51DFEB851FA2AB4E7D40CB62EFA
:106830002602C9F20E7FDC287D15DA736A065B1723
:1068400013816479442059DEE18F1BA5AF427B4E52
:10685000CD60EB6222902CEFF0C78DD257A13DA7FF
:1068600066B0753111489677F8E346E9ABD09E5390
:1068700033D8BA988DD257A13DA766B0753111486B
:106880009677F8E346E9ABD09E5333D8BA980824FC
:10689000CB3BFC71A3F45568CFA9196C5D4C0492F5
:1068A000E51DFEB8D6C5442059DEE18F1BA5AF42D9
:1068B0007B4ECD60EB6222902CEFF0C78DD257A1BA
:1068C0003DA766B0753111489677F8E346E9ABD03D
:1068D0009E5333D81F374A5F85F69C9AC1D6C5446C
:1068E0002059DEE18F1BA5AF427B4ECD60EB6222CB
:1068F000902CEFF0C78DD257A13DA766B07531112E
:10690000489677F82DE9F04F0FF218719B4E0FF271
:10691000447795B03CC900A800A93CC0DFF8A04668
:1069200094F8710400AD0B22A87094F87004E8701C
:1069300094F86F04287194F86E04687194F86D04EB
:10694000A87194F86C04E871D4F8340401F0FAFDED
:10695000E872010A000C297385F80D00DFF864560F
:1069600094F87A040C2840F005814FF08070C5F847
:1069700080004FF08060C5F8800004A9DFF84886E9
:10698000042200230B704046C3010006400E00F0B5
:10699000010C43EA8C13400800F0010C43EA4C134D
:1069A000400800F0010C43EA0C13400800F0010C11
:1069B00043EACC03400800F0010C43EA8C03400892
:1069C00000F0010C43EA4C0343EA5000521E4FEA28
:1069D000182801F8010BD4D1B4F880046238C0B291
:1069E00001F09FFD0FF2EC6110F801C000A905AAAB
:1069F0000E2308784FF0000E82F800E01CF807A084
:106A000000F001098AEA09090CF1010C4FF07F0A34
:106A1000BCFBFAFACAEBCA1AACEB0A0C92F800A05B
:106A2000CEF1070B400809FA0BF90EF1010E49EA05
:106A30000A09BEF1080F82F80090DFD3521C491CEE
:106A40005B1ED6D147F6FF710D2000F094FC42F694
:106A50002231122000F08FFC41F24B31142000F063
:106A60008AFC40F60141202000F085FCB4F8801437
:106A7000022000F080FC0B21052000F07CFC40216E
:106A8000032000F078FC1421232000F074FC5FEA5E
:106A9000C8704CBF4AF6AA2145F255512D2000F08E
:106AA0006AFC082000F048FC80464FEAC850C00D40
:106AB00040F49C41082000F05EFC00BF00F0B9FDEE
:106AC0004006FBD5612000F0D1FD00BF00F0B1FD14
:106AD0004007FBD54FF480703060802030620E207C
:106AE00000F02AFC00F01F000F28F8D1632000F00E
:106AF000BDFD4FF000090DF1100AF0694007FCD40C
:106B0000C9F11201C9B21129A8BF10215246702043
:106B100000F08AFC09F11009B9F1120F0AF1100A0C
:106B2000EBD30E2000F008FC00F01F000F28F8D176
:106B30004FF480707060642000F098FD00F079FDE3
:106B40004007FBD4802070624146082000F013FC0F
:106B50004FF0807028604FF080602860DFF86C0490
:106B6000D0F8000000F59C70DFF8601409688142DD
:106B7000FAD3F5E615B0BDE8F08F000038C0092063
:106B80002DE9F047DFF848448EB010202060002542
:106B900001F022FA01F0CCFA8020206242F6223184
:106BA000122000F0E8FB41F24B31142000F0E3FB2F
:106BB00040F20111202000F0DEFB29215FF00300EC
:106BC00000F0D9FBDFF8F893DFF800A44FF4FA786F
:106BD00000F02FFD4006FBD500F02BFD4007FBD455
:106BE00099F87A0404285AD1B9F88C6422E0042078
:106BF0002870DAF80000000DE87001F09DFA686076
:106C0000322201A905F10E0000F0B4FF99F87804D2
:106C10006870002089F878040025DAF8000001F097
:106C20000BFA642000F022FD00F003FD4007FBD4C6
:106C3000761CB6B2B9F88E04401C8642D0DA711EBA
:106C400089B2022000F097FB612000F00FFD00BF29
:106C500000F0EFFC4007FBD5622000F007FDCDF807
:106C600000800098401E0090FBD105EB450001AA72
:106C7000311281546D1C01A9471806207E7000F066
:106C80005BFBEDB2000A102DB870CAD101F0ADF96E
:106C90000500ACD199F8780440F00400BAE7102060
:106CA00060600EB0BDE8F08770B50FF28831C84D56
:106CB000C34E84B00CC901A842F622310CC080201A
:106CC00028620024122000F056FB41F24B311420C0
:106CD00000F051FB40F20111202000F04CFB292173
:106CE000032000F048FBF121062000F044FB00BF28
:106CF00000F09FFC4006FBD500F09BFC4007FBD456
:106D000096F87A04072852D101A830F81400411EE1
:106D100089B2022000F02FFB612000F0A7FC00BF29
:106D200000F087FC4007FBD5622000F09FFC4FF489
:106D3000FA7000900098401E0090FBD1062000F0F1
:106D4000FBFA96F97E140004B1EB206F0EDA1CB149
:106D5000022C08D004D315E04FF48070286011E0B5
:106D6000102028600EE0022028600BE01CB1022CED
:106D700006D003D306E04FF4807002E0102000E05C
:106D800002206860601C032190FBF1F101EB4101DE
:106D9000441A8E48006801F04FF95FF0640000F07B
:106DA00065FCE4B200F045FC4007FBD4A8E704B062
:106DB00070BD000000B58DB000F008FA01F0C6F912
:106DC0008448854C0FF22825844EDFF8F4A101F0A9
:106DD000E5F8FDF793FD40F688174FF0FF384FF4C4
:106DE000847904E0012000F089F900F0AAFD7748D9
:106DF000006801F021F99AF879049AF87A1481422E
:106E0000F5D09AF87A040F28F1D8DFE800F0D51908
:106E100009AAC7B4BFCA1F216408A7CD130AE1E7B6
:106E2000E5E70F208AF87904002100220846C046D1
:106E3000C046DCE70E208AF87904FDF747FFD6E765
:106E400001208AF8790401F0C7F8F6E70820F2E794
:106E5000FEF718F86248CAF89C040920FEF772F998
:106E600000208AF87904C2E705208BF800009AF820
:106E700076048BF80300DAF89004CBF80400BAF833
:106E80008A0462388BF8020020788BF80900554894
:106E900000788BF80800BAF88A0401F000FB8BF840
:106EA0000A003222504800788BF80B0000A90BF141
:106EB0000E0000F05FFE9AF878048BF801000020C5
:106EC0008AF878044948CAF89C040020CAF83804B3
:106ED0000A20FEF737F99AF87A040A287FF487AF78
:106EE00049460AF5487001F0E7FBCAF82084BAF871
:106EF0008004C00748BFAAF88074DAF8640440B977
:106F0000BAF8800400F0B6FDCAF898640A20FDF7CC
:106F1000FDFF9AF87A040A287FF469AFB5E80E58A5
:106F200000A8A0E80E58B5E80E58A0E80E5855F88D
:106F30003019016000208DF8000004220AF58561F7
:106F40000DF1010000F016FE01F04FF85FEA000BB2
:106F50008AD19AF8780440F00400B1E7FFF7D2FC38
:106F600045E703208AF879040AF590610AF27D402A
:106F700001F08AFD3BE705208AF879040AF5906064
:106F800001F09EFB00208AF87A0430E706208AF898
:106F900079040AF5906001F0BFFC28E7FFF7F0FDE7
:106FA00025E7FFF781FE22E70D208AF879040FF22A
:106FB0008C0001F0A9FD1AE7FDF7A0FC17E700001F
:106FC0000000001000E100E0D6BE898EA42E001063
:106FD00038C0092001400000CD2E0010CD5D00001A
:106FE000C1570000CC2E0010CE2E0010095C00000E
:106FF0000000000000000000000000000000000091
:107000000000000000000000000000000000000080
:107010000000000000000000000000000000000070
:10702000000000000009FFFFFFFFFFFF020105FF56
:10703000FFFF00006C0985099E0900000A45474FC3
:10704000206D6F6465206865726520646973616294
:107050006C656400010101010001000100010000F4
:107060000000010001010001010101000001010116
:10707000000001000100010100000101000000000A
:1070800000010100010100010001010100010000F7
:1070900000010100000100000001000000000000EC
:1070A00001000001000001010001000001010101D7
:1070B00000010101000000000101010101010100C6
:1070C00000000101010001010000000100010000B9
:1070D00001000100463E786F4D2E0F6542271F1AB2
:1070E00050537D590A2308367A1121003A73065EFF
:1070F00056313414281B545A3F702F66DFF8381964
:107100004843C20802EB900202EB901202EBD0124D
:10711000DFF8281902EB902202EBD0200860086803
:10712000401E0860FBD17047C20802EB900202EBE0
:10713000901202EBD012DFF8041902EB902202EB5E
:10714000D02008600868401E0860FBD1704700B579
:1071500081B000F019F8DFF8E808002101604CF276
:107160001271016240F2B1110164002101664FF019
:107170004051C0F880100021416141634165416781
:10718000C0F8941001B000BDDFF8B808002101601C
:1071900041608160C1600161C16141628162002220
:1071A000DFF89C180A600A620A640A66C1F8802047
:1071B000026442648264C2640265C26542664A61D6
:1071C0004A634A654A67C1F89420704700B581B0A8
:1071D000FFF7BDFFDFF87018086820F47010086032
:1071E000DFF85C08026822F0C06202600A6C42F4B8
:1071F00020120A640A6C22F4A0120A644FF400718F
:1072000081631222DFF834180A600A68521E0A608D
:10721000FBD1202181654FF4804181631820DFF884
:107220002C1800F02AF801B05DF804EBC6E2DFF894
:107230001408016821F4404141F4004101600168F3
:1072400021F4405141F400510160016821F44031C2
:1072500041F400310160016821F4402141F4002132
:1072600001604FF08050DFF8E8170860C721DFF8B1
:10727000E40701600C214160704702460846012185
:10728000531E9940DFF8D0374FF0200C002AC3F886
:1072900008C04ED05FEAC27C17D508424FF0010CFF
:1072A00014BFC3F804C0C3F808C04FF0100CC3F8F3
:1072B00004C04000D3F800C05FEA8C7C4FF0100C93
:1072C00048BF40F00100C3F808C0520831D008425E
:1072D0004FF0010C14BFC3F804C0C3F808C04FF04E
:1072E000100CC3F804C04000D3F800C05FEA8C7CE7
:1072F0004FF0100CC3F808C048BF40F0010008422E
:107300004FF0010C14BFC3F804C0C3F808C04FF01D
:10731000100CC3F804C04000D3F800C05FEA8C7CB6
:1073200048BF40F001004FF0100C521EC3F808C0D7
:10733000CDD1202159607047DFF81C1720228A60C8
:1073400040F0800000041822521E030247BF0123B0
:107350004B6001238B6010234B6040000B689B0740
:1073600048BF40F001001023002A8B60ECD120229E
:107370004A6080B2704741EA0040DFF8DC16202204
:107380008A601822521E030247BF01234B6001236B
:107390008B6010234B6040000B689B0748BF40F098
:1073A00001001023002A8B60ECD120204860704738
:1073B000DFF8A41620228A6040F08000000210222C
:1073C000521E030447BF01234B6001238B6010232F
:1073D0004B6040000B689B0748BF40F00100102342
:1073E000002A8B60ECD120224A60C0B2704741EA8B
:1073F0000020DFF8641620228A601022521E030447
:1074000047BF01234B6001238B6010234B6040007A
:107410000B689B0748BF40F001001023002A8B60D7
:10742000ECD1202048607047DFF830364FF0200C58
:10743000C3F804C05FEA006C4FF0010C4CBFC3F806
:1074400000C0C3F804C04FF0100CC3F800C0C3F86C
:1074500004C05FEA406C4FF0010C4CBFC3F800C0A1
:10746000C3F804C04FF0100CC3F800C0C3F804C048
:107470005FEA806C4FF0010C4CBFC3F800C0C3F84A
:1074800004C04FF0100CC3F800C0C3F804C05FEA9A
:10749000C06C4FF0010C4CBFC3F800C0C3F804C06F
:1074A0004FF0100CC3F800C0C3F804C05FEA007CC2
:1074B0004FF0010C4CBFC3F800C0C3F804C04FF03C
:1074C000100CC3F800C0C3F804C05FEA407C4FF062
:1074D000010C4CBFC3F800C0C3F804C04FF0100C3F
:1074E000C3F800C0C3F804C05FEA807C4FF0010C11
:1074F0004CBFC3F800C0C3F804C04FF0100CC3F871
:1075000000C0C007C3F804C0000E19BF01201860F6
:1075100001205860102018600029586076D010783B
:107520005FEA006C4FF0010C4CBFC3F800C0C3F819
:1075300004C04FF0100CC3F800C0C3F804C05FEAE9
:10754000406C4FF0010C4CBFC3F800C0C3F804C03E
:107550004FF0100CC3F800C0C3F804C05FEA806CA1
:107560004FF0010C4CBFC3F800C0C3F804C04FF08B
:10757000100CC3F800C0C3F804C05FEAC06C4FF041
:10758000010C4CBFC3F800C0C3F804C04FF0100C8E
:10759000C3F800C0C3F804C05FEA007C4FF0010CE0
:1075A0004CBFC3F800C0C3F804C04FF0100CC3F8C0
:1075B00000C0C3F804C05FEA407C4FF0010C4CBF30
:1075C000C3F800C0C3F804C04FF0100CC3F800C0EB
:1075D000C3F804C05FEA807C4FF0010C4CBFC3F8D5
:1075E00000C0C3F804C04FF0100CC3F800C0C007BF
:1075F000C3F804C0000E19BF0120186001205860B4
:107600001020521C1860491E586088D118605860BC
:1076100018605860186058601860586018605860AA
:107620001860586018605860186058602020186012
:107630007047DFF8241420228A6000200822521E9E
:10764000030647BF01234B6001238B6010234B606F
:1076500040000B689B0748BF40F001001023002A40
:107660008B60ECD120224A60C0B27047DFF8E8138B
:1076700020228A600822521E030647BF01234B6066
:1076800001238B6010234B6040000B689B0748BFB1
:1076900040F001001023002A8B60ECD120224A60C8
:1076A000C0B27047DFF8B0032022826000211822A8
:1076B000521E0B0247BF0123436001238360102346
:1076C0004360490003689B0748BF41F00101102354
:1076D000002A8360ECD1202141604FF40001202377
:1076E00083600A4618235B1E5FEA022C4FF0010CF0
:1076F0004CBFC0F804C0C0F808C04FF0100CC0F870
:1077000004C05200D0F800C05FEA8C7C48BF42F051
:1077100001024FF0100C002BC0F808C0E3D192B268
:107720002023002A4360DAD183604FF400421823FB
:107730005B1E5FEA022C4FF0010C4CBFC0F804C086
:10774000C0F808C04FF0100CC0F804C05200D0F8C8
:1077500000C05FEA8C7C48BF42F001024FF0100C81
:10776000002BC0F808C0E3D12022426020238360B0
:107770000A4618235B1E5FEA022C4FF0010C4CBF37
:10778000C0F804C0C0F808C04FF0100CC0F804C026
:107790005200D0F800C05FEA8C7C48BF42F0010282
:1077A0004FF0100C002BC0F808C0E3D192B2202398
:1077B000B2F5004F4360D9D17047000010B5DFF833
:1077C000A04244F23A0020600020C4F80C01D4F832
:1077D000800020F00200C4F88000AA20C4F88C00C9
:1077E0005FF05500C4F88C00D4F888008001FBD409
:1077F000D4F8800040084000C4F88000AA20C4F8F3
:107800008C005520C4F88C00D4F88800C001FBD44B
:107810000020C4F80401FFF745FFDFF83C12DFF851
:10782000440220228A601822521E030247BF01230D
:107830004B6001238B6010234B6040000B689B075B
:1078400048BF40F001001023002A8B60ECD12020BB
:10785000486060210820FFF710FD00210820FFF795
:107860000CFD4006F9D52020C4F8A001D4F8A001F1
:107870004006FBD50820C4F8A8010020C4F8AC01DC
:107880000120C4F80C01DFF8E001C4F88400AA204C
:10789000C4F88C005520C4F88C00D4F8800040F067
:1078A0000100C4F88000AA20C4F88C005FF05500E5
:1078B000C4F88C00D4F88800C001FBD50320C4F8BC
:1078C0000401D4F8800040F00200C4F88000AA202F
:1078D000C4F88C005FF05500C4F88C00D4F8880020
:1078E0008001FBD52220C4F8A400AA20C4F8AC0073
:1078F0005520C4F8AC00D4F8A00040F00100C4F852
:10790000A000AA20C4F8AC005FF05500C4F8AC0099
:10791000D4F8A800C005FBD5D4F8A8004005FBD5D5
:10792000D4F8A00040F00200C4F8A000AA20C4F8D7
:10793000AC005520C4F8AC00D4F8A8008005FBD5F5
:1079400010BD00B581B0FFF71FFC48490220086058
:107950004FF08040016841F003010160AA2181607D
:107960005521816001B05DF804EB3348FFF7DCBBC3
:1079700030B58BB00446362005900D4600A905A809
:107980003B4A90470098207000A8416861704168A8
:10799000090AA1704168090CE1704068000E20716D
:1079A000052028600BB030BD30B58BB004463A20BE
:1079B00005900D4600A905A82D4A90470098207013
:1079C00000A8416861704168090AA1704168090C0A
:1079D000E1704168090E2171816861718168090A4D
:1079E000A1718168090CE1718168090E2172C16879
:1079F0006172C168090AA172C168090CE172C168AB
:107A0000090E2173016961730169090AA173016992
:107A1000090CE1730069000E2074112028600BB07E
:107A200030BD00B58BB03920009005A900A8104AE0
:107A300090470BB000BD000040420F00C02E001068
:107A400000C0092000C0024004C00240FF7F0D00BA
:107A500098C009200000034054C0092058C00920E4
:107A600000C00F4070150800180001003CC009203C
:107A7000F11FFF1F30B52D4C94F90150012D81B03D
:107A800005DB00F00CFD61780818A0F136056DB239
:107A900015F1780FB8BF6FF0770504DB15F1130F00
:107AA000A8BF6FF0130505F13800C0B240F0030124
:107AB0000620FFF760FC15F1770FA570B4BF012019
:107AC0000020207001B030BD18490020C8704FF46C
:107AD000001017490860042116480160816841F0D0
:107AE0000401816070471348816821F004018160BE
:107AF000042101604FF400100F49086000200B4979
:107B0000C87070470B48816821F00401816004212E
:107B100001604FF400100849086000210348C1705B
:107B200001706FF07701417081707047C42E0010B2
:107B300000E100E0AC80024080E100E000F10103E0
:107B4000810704D010F8011B89B18107FAD10268BE
:107B5000B2F10131914311F0803F04BF50F8042F7E
:107B6000F6E710F8011B11B110F8011BFBE7C01A72
:107B70007047000062B38B0708D0521E11F8013B1A
:107B800000F8013B00F024808B07F6D1830740F01A
:107B9000208000BF103A07D330B4B1E83810103A53
:107BA000A0E83810F9D230BC530724BFB1E8081060
:107BB000A0E8081044BF51F8043B40F8043BD2074A
:107BC00024BF31F8022B20F8022B44BF0B7803703E
:107BD0007047083A07D3B1E80810083A40F8043B68
:107BE00040F804CBF7D25307E4E70000D2B2203AC2
:107BF00022BF00FA02F1002070475242D041D2F178
:107C0000200291404140D0409040414070470000E8
:107C1000F0B4DFF8E0C20022CCE90422DCE9000184
:107C20008CF820204F2701210CF1210202234F2440
:107C300093FBF4F407FB143402F8014B3D469C1C03
:107C400094FBF5F507FB154402F8014B3D461C1D5E
:107C500094FBF5F5C91C9B1D07FB15444F2902F841
:107C6000014BE4DBC10D01F01F018CF81810C208B4
:107C7000C10C01F00F018CF81910030903F0100476
:107C800002F0080581082C1901F004052C1945089B
:107C900005F002052C1900F001052C198CF81A408A
:107CA00085094403E40DACF81E4005F02005C40925
:107CB00004F040042C19450905F010052C1903F0B7
:107CC00008031B1902F00402D21801F002018918FE
:107CD000C0F3400040188CF81B009CF81C000028E2
:107CE00036D000220CF1C0030A24002118780025A8
:107CF00088B1461E30406D1C68B1461E30406D1C78
:107D000048B1461E30406D1C00281FBF461E304043
:107D10006D1C0028EDD1AA185B1C641EE6D18CF8FE
:107D20001D2000204F2290FBF2F207FB1202491C9B
:107D3000801C4F29F6DBD2B20CEBE20002F0070107
:107D400090F8C00020FA01F3D80748BF8CF8202033
:107D5000F0BC7047F0B486B0D20500F01F0001F00F
:107D60001F01D20D002302AC22FA03F505F0010534
:107D700004F8015B5B1C22FA03F505F0010504F829
:107D8000015B5B1C22FA03F55B1C05F00105092B66
:107D900004F8015BE8DB02AA01F0010353720D2431
:107DA000C1F340038DF81230C1F380038DF8133016
:107DB000C1F3C0030909517300F001028DF80020DE
:107DC00000A9C0F340024A708DF81430C0F380025D
:107DD0008A70C0F3C0020009CA7008710FF229123C
:107DE0000FF235130DF1150005783DB115781F78A8
:107DF0006E5C17F801C005F801C07E54641E10F8CF
:107E0000015C4DB112F8015C13F8017C6E5C17F84F
:107E100001C005F801C07E54641E9B1E921E801E88
:107E2000002CE1D59DF800004A7800EB42008A78EA
:107E300000EB8200CA78097906B0F0BC00EBC20002
:107E400000EB0110C0B270472B4AF0B5294E96F8EE
:107E50001AC002EAD005327E82EA505202F01F03B5
:107E6000C0F384029F18C0F34001F28B4C018CEAEE
:107E7000104C82EAD012C0F3840018183B1107EBB3
:107E8000D3635B11A0EB4310737EC1EB41110CF087
:107E90001F0CD2058CEA0101584081B0D20DC9B245
:107EA000C0B2FFF757FFF17E08184F2228184F2164
:107EB000B5FBF2F201FB1202A2180B46B2FBF3F380
:107EC00001FB13218919327F91F8201062B1717F73
:107ED000B5FBF1F201FB12002018B0FBF1F201FB3F
:107EE0001200801990F8701001F6621080B201B093
:107EF000F0BD0000E82C0010F0FFFF0100020103BC
:107F0000000100030100020100010000010302045E
:107F1000040302040403040303020000002200F02F
:107F200005BE000010B582B043886E4C2468ADF8E1
:107F300000308388ADF80230126840780B4600A903
:107F4000A047012818BF002002B010BD10B586B0B0
:107F5000044600A901A8FFF727FD9DF80400D8B941
:107F60000DF1050004F1B201112203781B090A2B5F
:107F7000ACBF573330330B7000234B70037803F0E2
:107F80000F030A2BACBF573330338B70401C0023D8
:107F9000CB70091D521EE8D106B010BD30B581B0BE
:107FA000044600F0F4FD4F4D281DFFF7CFFF281DBC
:107FB00000F061FE2C6005F1F8024B49022000F050
:107FC000FAFF0FF23011FF2000F03CFE012001F01B
:107FD00060F8002001B030BD4448002101604160DC
:107FE0000C304FF4005100F067BB40480168426814
:107FF00002F07F02531C01F07F0103F07F039942DE
:1080000001D1002070474168491C416000EB82109B
:108010000C30704735480168426801F07F0102F07A
:108020007F02914201D1002070470268521C026019
:1080300000EB81100C30704770B5044682B082208E
:1080400001F03FF806468006284D22D4286869686A
:1080500000F07F0001F07F0188420CD02968491CA4
:10806000296005EB801000F10C01AC6040228220F9
:1080700001F065F80DE0A8681D49201A884208D370
:1080800003208DF80000AC60012200A9822001F0DD
:1080900056F8700622D42868696800F07F0001F065
:1080A0007F0188420CD02968491C296005EB8010AB
:1080B00000F10C01AC604022822001F040F80DE09C
:1080C000A8680B49201A884208D303208DF80000C5
:1080D000AC60012200A9822001F031F801F0EBF838
:1080E00002B070BDAC080010257F0000600B0010CE
:1080F000811A06007B38616334376138382D636339
:1081000032362D346161392D383837622D3432637F
:108110006138636630376136337D000015490220CF
:1081200008600021144841608160C160018070478F
:1081300010490120086070470F48104A40681268D3
:1081400080B240F6354101FB00207047094802210A
:108150000160002208494A608A60CA600A800421DE
:10816000816040F6344141610321016102200449EC
:108170000860704704400040A02E001008400040F6
:1081800000E100E09448016841F0005101604FF0C7
:1081900080609249086000219148C0F80811C0F839
:1081A0002811C0F84811C0F86811C0F88811C0F84B
:1081B000A811C0F8C811C0F8E811FF210160816062
:1081C000816A490849008162816AC907FCD400229A
:1081D0008449C1F8D820C1F8DC2001F1E00301F1A5
:1081E000E002C1F8D02001F58A72C1F8D420C1F8AC
:1081F000B43001F1C0037C4AC1F8B020C1F8C020FE
:10820000C1F8B83001F58A72C1F8C42001F1B0029A
:10821000C1F8C8200122754BC1F8BC30C1F8CC3080
:108220008262826AD207FCD5D1F8B020C0F8F8206B
:10823000D1F8B420C0F8FC20D1F8B820C0F8002153
:10824000D1F8BC10C0F804114DF20601C0F80811B5
:1082500070470000F0B46048016841F000510160CF
:108260004FF080605D49086000215D48C0F808114A
:10827000C0F82811C0F84811C0F86811C0F888117A
:10828000C0F8A811C0F8C811C0F8E811FF210160BA
:108290008160816A490849008162816AC907FCD40A
:1082A00000225049C1F8D820C1F8DC2001F1E002D9
:1082B000C1F8D02001F58A72C1F8D420012282626F
:1082C000826AD207FCD501F1E0020B460524484D35
:1082D000DFF8146103F110071E609F605A60171DDC
:1082E0005F61DD6003F120071E619F61DD61203366
:1082F0000832641EEED1C1F8A06001F58472C1F8A5
:10830000A420C1F8AC500022C1F8A8200A68C0F827
:10831000F8204A68C0F8FC208A68C0F80021C968C3
:10832000C0F804114DF20601C0F80811F0BC704706
:108330003048314A4FF080510160136A43F0010325
:108340001362136843F0020313602C4A136843F06E
:10835000010313604FF08062294B1A60416070473F
:1083600024494FF0805008602348016A49084900B9
:108370000162016821F0020101604FF0806017493D
:10838000086000211648C0F80811C0F82811C0F88C
:108390004811C0F86811C0F88811C0F8A811C0F8D9
:1083A000C811C0F8E811FF2101608160816A4908A5
:1083B00049008162816AC907FCD400210948C0F8DC
:1083C000D810C0F8DC1000F1E001C0F8D01000F5C2
:1083D0008A71C0F8D4107047C4C00F4080E100E03B
:1083E000084000506C2B00100800034032900088B9
:1083F0000410008898C00920040003401041005078
:1084000000E100E010B5314C9E21201D00F054F930
:108410002F490020087020606FF07F002D49087000
:108420007F202D49087010BD2A4991F90020824211
:10843000B8BF02460A70284991F900209042B8BF9F
:1084400002460A7021490A6802EB002008602048B1
:108450000178491C0170704740F6621188421C493E
:108460000A781A49A3BFB0F51B6FA0F6621040004E
:1084700000202AB10B68803393FBF2F202EB420238
:1084800043184FF0FD0CB3F904300CFB032280328B
:10849000D31102EB1362401812128280704740F62B
:1084A00062118842A6BFB0F51B6F400041F2C420A4
:1084B00006494018A0F59650B0F900008030C1116F
:1084C00000EB11600004001670470000B42D00108E
:1084D000CE2E0010CC2E0010CD2E0010427D0B2A87
:1084E00003DA510001F664110FE0252A03DA510086
:1084F00001F6661109E008BF40F6621105D0262A90
:108500000CBF40F67A114FF41B61837D9A18252326
:1085100092FBF3F34FF0250C0CFB1322427588B24B
:108520007047400808BF25200AD00C28B8BF401E5D
:1085300006DB08BF262003D02728B4BF801E2720D3
:10854000C0B270470002000A012A00DA704770B416
:108550003D4B0C785FF0080584EA000606F0010642
:108560006408400816B140F4000058406D1EF3D175
:10857000491C521EEDD170BC70470000F0B4521E71
:1085800018D45118314B0C785FF00005C5F107077E
:1085900024FA07FCC60D0CF001074002774047EAB9
:1085A000102006B158406D1C082DEFDB521E491EED
:1085B000002AE8D50021002220FA02F303F001038B
:1085C000C2F11704A3401943521C182AF4DBF0BC73
:1085D000084670470002000A012A00DA704730B4EA
:1085E00012F003041A4B09D011F8015B4540EDB2BB
:1085F00053F82550641E85EA1020F5D1920821D049
:1086000011F8014B4440E4B253F8244084EA1020AE
:1086100011F8014B4440E4B253F8244084EA10209E
:1086200011F8014B4440E4B253F8244084EA10208E
:1086300011F8014B4440E4B253F82440521E84EA3E
:108640001020DDD130BC704700605A0000C0B4007B
:10865000AC0400100300002013F0030F09D0521ED9
:1086600022BF13F8010B11F801CBB0EB0C00F3D0D3
:108670007047121F22BF53F8040B51F804CB60451A
:10868000F7D0121D0AD200BA9CFA8CFCB0EB0C0099
:1086900038BF6FF0000088BF01207047521E22BF14
:1086A00013F8010B11F801CBB0EB0C00F6D0521C03
:1086B00008BF104670470000002200F0F3BE000023
:1086C0002DE9F04F97B0044615208DF800003A20B0
:1086D000DFF82824119000AE0025126875700CA9EF
:1086E00011A890470C98000640F013810CA87582E1
:1086F000416871710A0EB2700A0CF2700A0A327186
:1087000081688DF809100A0E8DF806200A0C8DF884
:1087100007200A0A3272C16800698DF80D100A0E2E
:108720008DF80A208DF811000A0C8DF80B200A0A2A
:10873000010EB1733273010CF173010AFF20317421
:108740003075707542F622311220FEF714FE41F2A8
:108750004B311420FEF70FFE40F6F1512020FEF7BA
:108760000AFE21880220FEF706FE4FF6AE112D20EC
:10877000FEF701FE41F284512C20FEF7FCFD08219A
:108780000520FEF7F8FD29210320FEF7F4FD00BFC8
:10879000FEF74FFF4006FBD56120FEF767FF00BFE5
:1087A000FEF747FF4007FBD5D54F4FF48078C7F859
:1087B00000808020386200BF45F008010520FEF7E8
:1087C000DAFDB5744FF0000986F813900E20FEF71D
:1087D000B3FD00F01F000F287FF4F8AF0DF1000A81
:1087E0004FF0160B1AF8011B7020FEF700FEBBF1CC
:1087F000010BF7D16320FEF739FF09F10109B9F147
:10880000100FE1DB6D1C082DD6DB0E20FEF794FD6A
:1088100000F01F000F28F8D1C7F804806420FEF78D
:1088200025FF00BFFEF705FF4007FBD42088411E4F
:1088300089B20220FEF79FFDFEF7FBFE4006FBD546
:108840006120FEF713FF00BFFEF7F3FE4007FBD5E4
:108850001020386001E0022078600E20FEF76CFDE9
:1088600000F01F000F28F8D16220FEF7FFFE00BFC6
:10887000FEF7DFFEC006FBD50220386006AC1625E9
:108880007020FEF795FD6D1E04F8010BF8D1FEF780
:10889000D0FE0007DFD50E20FEF74EFD00F01F00D2
:1088A0000F28F8D16420FEF7E1FE00BFFEF7C1FEFD
:1088B0004007FBD48020786201211020786006AB4D
:1088C0009048017006A900AC8A7C4270CA7C827014
:1088D0000A7D497D0171C270012171700021027809
:1088E0001D782678B54218BF8A1C5D786678491CC9
:1088F000B54218BF8A1C9D78A678491CB54218BF9E
:108900008A1C491CE41CDB1C1229E9DB02700220D2
:10891000786017B0BDE8F08F2DE9F04F87B0804642
:108920004FF48075DFF8D8610DF1000942F622316D
:108930001220FEF720FD41F24B311420FEF71BFD03
:10894000B8F80000411E89B20220FEF714FD4FF670
:10895000AE112D20FEF70FFD41F284512C20FEF7C1
:108960000AFD08210520FEF706FD29210320FEF758
:1089700002FD00BFFEF75DFE4006FBD56120FEF75D
:1089800075FE00BFFEF755FE4007FBD51020306096
:10899000756002207060802030620E20FEF7CCFCF3
:1089A00000F01F000F28F8D1022070606220FEF74F
:1089B0005DFE00BFFEF73DFEC006FBD50220306025
:1089C00000AC16277020FEF7F3FC7F1E04F8010BA5
:1089D000F8D1FEF72EFE0007DFD5022070601020D0
:1089E00070606420FEF742FEFEF723FE4007FBD4D2
:1089F000FEF71FFE4006FBD5B8F800100220FEF778
:108A0000BAFC00BFFEF715FE4006FBD56120FEF75D
:108A10002DFE356015208DF8000000245FF0010068
:108A200089F8010044F008010520FEF7A4FC89F84C
:108A30001440002789F815700E20FEF77DFC00F029
:108A40001F000F287FF4F8AF0DF1000A4FF0160B4E
:108A50001AF8011B7020FEF7CAFCBBF1010BF7D11D
:108A60006320FEF703FE7F1C102FE3DB641C082C41
:108A7000D8DB75606420FEF7F9FD00BFFEF7D9FD75
:108A80004007FBD452E7000030B581B00C460178B6
:108A900079BB292542F622311220FEF76CFC43F205
:108AA0004B311420FEF767FC40F6F1512020FEF711
:108AB00062FC21880220FEF75EFC29460320FEF7B7
:108AC0005AFC00BFFEF7B5FD4006FBD56120FEF75E
:108AD000CDFD00BFFEF7ADFD4007FBD5084C4FF4C0
:108AE000807020606320FEF7C1FD8020206201B00D
:108AF00030BD00780128FAD14025CBE7BC990000B1
:108B000038C00920B02E00100EB400B582B003A901
:108B10000091024600AB0121034878440A3000F07E
:108B2000E6FC06BC5DF810FB630E0000401810F078
:108B3000030308D0C91A1FD3DB0748BF00F8012D73
:108B400028BF20F8022D130030B414461546103902
:108B500028BF20E93C00FAD8490728BF20E90C00CB
:108B600048BF40F8042D890028BF20F8022D48BFD7
:108B700000F8012D30BC7047C91818BF00F8012D4E
:108B8000CB0728BF00F8012D70470000704710B5D3
:108B900000F018FC0D480E4C00F05AFA2146002057
:108BA00000F03CFA2146802000F038FA40210020F5
:108BB00000F00AFA4021802000F006FA054A064932
:108BC000002000F0F8F9012010BD00008D8B00009E
:108BD000C58E0000B82E00108D8D000070B49B4D26
:108BE0006C7D64B34678A64229D100240C60C48809
:108BF00046888088360A042804D0052807D070BC2F
:108C0000012070470FF24C201860282003E005F186
:108C10001C0018609220106030041568854202DA4A
:108C200070BC012070471E688619281A84421E6095
:108C3000C8BF044614600120086070BC704770BC57
:108C400000207047814A5075A1B102F15E000022F8
:108C50000B7863B111F8013B00F8023B0B7833B19C
:108C600011F8013B00F8023B921C262AF0DB0021A0
:108C7000017081707047754988617047F0B4010ACE
:108C8000C0B2032908BFEE2808D17048417D0174A5
:108C90001860122010600120F0BC70476B4CA46972
:108CA000002501E06D1C3419267886B167788F4263
:108CB000F9D18542F6D11C60022903BFA078E17882
:108CC00040EA0120207810600120F0BC7047F0BC21
:108CD000002070472DE9F04381B0044663781068A6
:108CE000092B4FD8DFE803F0054E4E4E4E0E134EC3
:108CF0001B2000220270427002200860012001B097
:108D0000BDE8F0836088C0B200F0ACF9F6E7134626
:108D10000A46A188608801B0BDE8F043AEE74B4A3F
:108D2000127D02700120E8E76688484DF6B20EB960
:108D3000002022E0AF694FF0FF09C84604E000BF01
:108D400097F805903878C7193878A8B1787802284C
:108D5000F6D004280DD0052804BFB145B8F1000FA6
:108D6000F0D13879797940EA0121B87800F02CF90E
:108D7000E8E797F80380E5E7012000F087FA6088CC
:108D80002875BBE7002001B0BDE8F08370B504464C
:108D90002F48036818000D46164603D02046984712
:108DA00000284FD1207810F01F0004D0022828D0CE
:108DB00007D3002070BD324629462046BDE87040EA
:108DC00088E7617830680B293ED8DFE801F0111898
:108DD00018181818181818180B066088A0BB2860F7
:108DE000012070BD0021017001202860012070BDAC
:108DF00000210170417002202860012070BD002018
:108E000070BD6078366803281ED8DFE800F00F06D2
:108E10001D026088C0B9012102E06088A0B900216C
:108E2000A088C0B200F06AF9012070BDA088C0B26D
:108E300000F047F9400800F0010030700020707029
:108E400002202860012070BD002070BDA80A00101B
:108E5000C82E0010280000000001040001000000DE
:108E600000000000000157494E5553420000000029
:108E7000000000000000000000000000F0B5044603
:108E800081B02078C0F34117022F0D4616460BD152
:108E90000020009033462A4600A92046FFF79EFE98
:108EA00010B1009801B0F0BD464800EB870043695F
:108EB000180008BF002003D03246294620469847B4
:108EC00001B0F0BD30B5002881B061D148073D4CFC
:108ED00027D508222146002000F07CF92078C1081F
:108EE00001F00C010919496AA160E188E160216182
:108EF00009B1C0095DD004F1080204F11001204657
:108F0000FFF7BCFF68B3E08821698142B8BF08461B
:108F10000546E060412DA8BF4025A1682A46802073
:108F20003FE0E568012D2BDBA1682A46002000F018
:108F300051F9002815D4A1684118A160E168081A08
:108F4000E06036D12078C00800F00C00001904F170
:108F50000802406AA06004F110012046FFF78EFF6E
:108F600030B901B0BDE830400121802000F0C6B822
:108F7000E568A168412DA8BF40252A46802010E061
:108F800001B0BDE8304000210022084600F022B9BF
:108F900080280ED10B4CE568A168412DA8BF402563
:108FA0002A4600F0CCF8A0682818A060E068401BB2
:108FB000E06001B030BD034B03EB800041614262D1
:108FC00070470000B42C001000F00F02C00940EA06
:108FD0004202DFF89404436C4FF0010C0CFA02FCDF
:108FE0004CEA030343648264C1640168C905FCD58B
:108FF0004FF4807112048160302342F48002836058
:1090000042F4A06202610268D206FCD5102282609E
:1090100001610168C906FCD58260704700F00F024B
:10902000C00940EA420000EBD073DFF840245B083F
:1090300002EB83020123516003FA00F0DFF83014E1
:109040000A6B10430863086840F00400086070472A
:10905000DFF818140860DFF81804016841F008010F
:1090600001607047DFF8001430228A6040F0800011
:10907000DFF800240A610A68D206FCD51022000439
:109080008A6040F4807008610868C006FCD58A6078
:109090007047002814BFDFF8E0034FF48070DFF85A
:1090A000C81330228A60DFF8D4230A610A68D20626
:1090B000FCD510228A6008610868C006FCD58A6069
:1090C000704700F00F01C00940EA4100DFF8981333
:1090D00030228A60000440F4A0620A610A68D20665
:1090E000FCD510228A6040F4007008610868800690
:1090F000FCD5202088604869C0B2704700F00F029C
:10910000C00940EA4200002914BFDFF86C134FF495
:109110008071DFF854230004302340F48000936012
:1091200040F4A06010611068C006FCD5102090606B
:1091300011611068C006FCD510209060704730B4F3
:109140000346104603F00F04DA0942EA4402DFF84E
:109150001833A40044F002049C6258629C6AA4077D
:109160001DD58D78CC782D0445EA04644D7844EA09
:10917000052411F8045B2C43DC619C6AA4070ED51E
:109180008D78CC782D0445EA04644D7844EA0524B2
:1091900011F8045B2C43DC619C6AA407E1D4002134
:1091A000996230219960110441F4A0611961196834
:1091B000C906FCD51021996030219960DFF8C412EE
:1091C00019611968C906FCD51021996030BC704737
:1091D00000000000F0B400F00F05C00940EA4503AC
:1091E000DFF88442A80040F00100A062206A050573
:1091F000FCD5450558BF4FF0FF3044D58005800DA4
:109200000025002640B35FEAC07C0F4607D5A5695C
:1092100000291CBF002A3D702D0A01267F1C5FEA31
:10922000500C19D016F0030F08BFA56911B1964272
:1092300038BF3D702D0A761C16F0030F08BFA569D4
:1092400011B1964238BF7D702D0A761CACF1010C2D
:10925000BF1CBCF1000FE5D10021A1623021A1604B
:10926000190441F4A06121612168C906FCD51021CF
:10927000A1603021A160DFF8101221612168C906C8
:10928000FCD51021A160F0BC70470000002814BF7D
:1092900079484FF48070744930228A607B4A0A61B1
:1092A0000A68D206FCD510228A6008610868C006E8
:1092B000FCD58A607047F0B56B4C81B02568E80733
:1092C00018D50120A0606948416C080012D03020F8
:1092D000A0606F4820612068C006FCD51020A06007
:1092E0006C48206120688006FCD52020A060606961
:1092F000C0B28847280728D50820A0603020A06089
:109300005E4820612068C006FCD51020A06062483D
:10931000206120688006FCD52020A0606069C0B272
:1093200010F01A0111D0420700F001014CBF0422D5
:109330000022C0064CBF10200020114301434B48BF
:10934000026810001CBF08469047680738D5042003
:10935000A06000250126216B06FA05F001422CD001
:10936000A06320688006FCD52020A0606169C9B296
:109370008A074CBF022200224B074CBF0423002364
:10938000CF0601F001004CBF1027002709074CBF92
:1093900008210021104318433843014305EBD572DF
:1093A0003248521000EB82004268100005D0C5F32D
:1093B000430040EAC510C0B290476D1C202DCADBA7
:1093C00001B0F0BD3548C16821F4402141F480214D
:1093D000C160816821F0300141F010018160816835
:1093E00021F0405141F000518160016821F040615D
:1093F00041F080610160016821F0405141F08051ED
:1094000001602748016841F000410160DFF8580021
:10941000D0F8F41D41F01201C0F8F41DD0F8F81D89
:109420008907FBD5D0F8F81DC906FBD5002141609E
:1094300000224FF0FF318160C262426381630264A7
:10944000302181600E4901610168C906FCD51021F7
:1094500081604FF4807101610168C906FCD510215B
:10946000816001207047000000C20050582E00109B
:1094700004C200500005D000000101000005FE00FC
:109480000005F3000005FA000005F2000005D80011
:109490000005F5000002F5000002FE0004C00240D5
:1094A000C4C00F4000B500BF130096469446103963
:1094B00028BFA0E80C50FAD85FEA417C28BF0CC056
:1094C00048BF40F8042BC90728BF20F8022B48BF2B
:1094D00000F8012B00BD70B504461E000846154675
:1094E00004D015F8011BA047761EFAD170BD2DE9F6
:1094F000F04784B08246894614461F460DF10008A5
:1095000007E00123224649465046FFF7E4FF814623
:10951000641C207810B904B0BDE8F0872528F0D18C
:109520006078A41C2528014618D058285CD06328F0
:109530000ED0642818BF692814D06F2854D0702822
:1095400058D073285DD0752818BF78284CD0E0E734
:109550003868386050F8041B3860C9B24846D047B4
:109560008146D6E73868386050F8045B3860002DD3
:1095700003D52D214846D047814664206F2808BF77
:10958000082205D040F02001782914BF0A221022B9
:109590000B216428AC4603D1002D48BFCCF1000C50
:1095A000BCFBF2F502FB15CC0CF1300C5FFA8CFC25
:1095B0004B1EBCF13A0FA4BFA0F1510EF44403F8C6
:1095C00008C019465FEA050C01D00129E8DA00A8B5
:1095D0000D184846D1F10B09C2D015F8011BD04730
:1095E000B9F10109F9D1BBE73968396051F8045B79
:1095F0003960C3E73868386050F8045B3860782019
:10960000BCE73868386050F8045B38602846FEF7DD
:1096100095FA06004846A3D015F8011BD047761EE0
:10962000FAD19DE7816807E00268116853688918DC
:109630005B18C36008320260C2689142F4D04A1CD1
:109640008260087870472DE9FF4D00F10801009114
:1096500000270268520801EBC2010191B8460021BF
:10966000029103910168490800EBC101406800F0D4
:10967000010401F1080A40080AEBC00501E0474572
:1096800005D1AA4503D1284604B0BDE8F08D00A855
:10969000FFF7C8FF46B214E0761E47450FD1AA4532
:1096A00008BF00F028F8DAF8007004B14F44DAF887
:1096B000040000EB070847450AF1080AEFD007F855
:1096C00001BB002EDBD04FF0000BE5D50AE000987F
:1096D00001680818009902904968081803900098DA
:1096E00008300090029803998842F0D010F801BB2E
:1096F0000290761CD1E7012000F000B880B500F0A0
:1097000007F8024A11001820ABBEFBE72600020052
:1097100080B500F033F802000023DB431068984264
:1097200004D011000220ABBE0020106050689842A7
:1097300004D0111D0220ABBE0020506001BD00000E
:1097400010B584B0040000F019F8A10042181068A8
:109750000021C94388420DD107A00090002C01D1FF
:10976000002000E0042001900320029069460120BF
:10977000ABBE106004B010BD3A747400004870476E
:10978000580B00100148804701480047A19900008C
:10979000B1990000FFF7FEBFFFF7FEBFFFF7FEBF66
:1097A000FFF7FEBFFFF7FEBFFFF7FEBFFFF7FEBFED
:1097B000FFF7FEBFFEE7FFF7FEBFFFF7FEBFFFF7B5
:1097C000FEBFFFF7FEBFFFF7FEBFFFF7FEBFFFF7CD
:1097D000FEBFFFF7FEBFFFF7FEBFFFF7FEBFFFF7BD
:1097E000FEBFFFF7FEBFFFF7FEBFFFF7FEBFFFF7AD
:1097F000FEBFFFF7FEBFFFF7FEBFFFF7FEBFFFF79D
:10980000FEBFFFF7FEBFFFF7FEBFFFF7FEBFFFF78C
:10981000FEBFFFF7FEBFFFF7FEBFFFF7FEBFFFF77C
:10982000FEBFFFF7FEBFFFF7FEBFFFF7FEBFFFF76C
:10983000FEBF19E050F8041BCB0744BFA9F1010398
:109840005918121F0023042A41F8043BF9D25FEA99
:10985000827C0B4604D54FF0000CA1F800C09B1C85
:10986000D10744BF0021197050F8042B002AE1D120
:10987000704710B5044614F1010F82B00AD08DF87C
:109880000000012200A9012000F007F8012801D101
:10989000204616BD4FF0FF3016BD80B5002802D41B
:1098A00000F003F802BD002002BD80B5002901D1FF
:1098B000002002BD012801D0022802D100F004F8E6
:1098C00002BD00F011F802BD30B583B00C001500E8
:1098D0000120FFF735FF00900194029569460520AD
:1098E000ABBE281A03B030BD10B584B0030014001D
:1098F00000930191029469460520ABBE0122190034
:10990000201AC046C04604B010BD000010B507497B
:1099100079441831064C7C44163404E00A68081D6A
:10992000511888470146A142F8D110BD0800000037
:1099300030000000FFFEFFFF70230000600B0010EE
:109940000000000003FDFFFF020000000200000015
:1099500074000000C205000000000010600B000051
:109960000120C046002801D0FFF7D0FF0020C046EC
:10997000C046FDF71FFA00F000F800F001B8000043
:1099800007463846FFF7BAFEFBE738B504460D46F2
:109990002846FFF76EFFA84218BF0024204632BDBC
:1099A000014902480860704708ED00E0000000002F
:1099B000C046C046C046C046FFF7D2FFF11FFF1F9A
:1099C000FFF779BC7F7F7F7F7F7F7F7F30F1D6BEBF
:1099D000898E7D6B719155555500AAAAAA47FCE264
:1099E00000890902FF9E07FC6009B30920F5C0B495
:1099F00001008069030040DD0202F2D30600C06767
:109A0000070080BA0500400E0402F2A60D00C01245
